{
  "contractName": "Voting",
  "abi": [
    {
      "anonymous": false,
      "inputs": [
        {
          "indexed": true,
          "internalType": "address",
          "name": "previousOwner",
          "type": "address"
        },
        {
          "indexed": true,
          "internalType": "address",
          "name": "newOwner",
          "type": "address"
        }
      ],
      "name": "OwnershipTransferred",
      "type": "event"
    },
    {
      "anonymous": false,
      "inputs": [
        {
          "indexed": false,
          "internalType": "uint256",
          "name": "_proposalId",
          "type": "uint256"
        }
      ],
      "name": "ProposalRegistered",
      "type": "event"
    },
    {
      "anonymous": false,
      "inputs": [
        {
          "indexed": false,
          "internalType": "address",
          "name": "_voter",
          "type": "address"
        },
        {
          "indexed": false,
          "internalType": "uint256",
          "name": "_proposalId",
          "type": "uint256"
        }
      ],
      "name": "Voted",
      "type": "event"
    },
    {
      "anonymous": false,
      "inputs": [
        {
          "indexed": false,
          "internalType": "address",
          "name": "_voterAddress",
          "type": "address"
        }
      ],
      "name": "VoterRegistered",
      "type": "event"
    },
    {
      "anonymous": false,
      "inputs": [
        {
          "indexed": false,
          "internalType": "enum Voting.WorkflowStatus",
          "name": "_previousStatus",
          "type": "uint8"
        },
        {
          "indexed": false,
          "internalType": "enum Voting.WorkflowStatus",
          "name": "_newStatus",
          "type": "uint8"
        }
      ],
      "name": "WorkflowStatusChange",
      "type": "event"
    },
    {
      "inputs": [],
      "name": "owner",
      "outputs": [
        {
          "internalType": "address",
          "name": "",
          "type": "address"
        }
      ],
      "stateMutability": "view",
      "type": "function",
      "constant": true
    },
    {
      "inputs": [],
      "name": "renounceOwnership",
      "outputs": [],
      "stateMutability": "nonpayable",
      "type": "function"
    },
    {
      "inputs": [
        {
          "internalType": "address",
          "name": "newOwner",
          "type": "address"
        }
      ],
      "name": "transferOwnership",
      "outputs": [],
      "stateMutability": "nonpayable",
      "type": "function"
    },
    {
      "inputs": [],
      "name": "winningProposalID",
      "outputs": [
        {
          "internalType": "uint8",
          "name": "",
          "type": "uint8"
        }
      ],
      "stateMutability": "view",
      "type": "function",
      "constant": true
    },
    {
      "inputs": [],
      "name": "workflowStatus",
      "outputs": [
        {
          "internalType": "enum Voting.WorkflowStatus",
          "name": "",
          "type": "uint8"
        }
      ],
      "stateMutability": "view",
      "type": "function",
      "constant": true
    },
    {
      "inputs": [
        {
          "internalType": "address",
          "name": "_addr",
          "type": "address"
        }
      ],
      "name": "getVoter",
      "outputs": [
        {
          "components": [
            {
              "internalType": "bool",
              "name": "isRegistered",
              "type": "bool"
            },
            {
              "internalType": "bool",
              "name": "hasVoted",
              "type": "bool"
            },
            {
              "internalType": "uint256",
              "name": "votedProposalId",
              "type": "uint256"
            }
          ],
          "internalType": "struct Voting.Voter",
          "name": "",
          "type": "tuple"
        }
      ],
      "stateMutability": "view",
      "type": "function",
      "constant": true
    },
    {
      "inputs": [
        {
          "internalType": "uint256",
          "name": "_id",
          "type": "uint256"
        }
      ],
      "name": "getOneProposal",
      "outputs": [
        {
          "components": [
            {
              "internalType": "string",
              "name": "description",
              "type": "string"
            },
            {
              "internalType": "uint256",
              "name": "voteCount",
              "type": "uint256"
            }
          ],
          "internalType": "struct Voting.Proposal",
          "name": "",
          "type": "tuple"
        }
      ],
      "stateMutability": "view",
      "type": "function",
      "constant": true
    },
    {
      "inputs": [
        {
          "internalType": "address",
          "name": "_addr",
          "type": "address"
        }
      ],
      "name": "addVoter",
      "outputs": [],
      "stateMutability": "nonpayable",
      "type": "function"
    },
    {
      "inputs": [
        {
          "internalType": "string",
          "name": "_desc",
          "type": "string"
        }
      ],
      "name": "addProposal",
      "outputs": [],
      "stateMutability": "nonpayable",
      "type": "function"
    },
    {
      "inputs": [
        {
          "internalType": "uint8",
          "name": "_id",
          "type": "uint8"
        }
      ],
      "name": "setVote",
      "outputs": [],
      "stateMutability": "nonpayable",
      "type": "function"
    },
    {
      "inputs": [],
      "name": "startProposalsRegistering",
      "outputs": [],
      "stateMutability": "nonpayable",
      "type": "function"
    },
    {
      "inputs": [],
      "name": "endProposalsRegistering",
      "outputs": [],
      "stateMutability": "nonpayable",
      "type": "function"
    },
    {
      "inputs": [],
      "name": "startVotingSession",
      "outputs": [],
      "stateMutability": "nonpayable",
      "type": "function"
    },
    {
      "inputs": [],
      "name": "endVotingSession",
      "outputs": [],
      "stateMutability": "nonpayable",
      "type": "function"
    }
  ],
  "bytecode": "0x608060405234801561001057600080fd5b5061002d61002261003260201b60201c565b61003a60201b60201c565b6100fe565b600033905090565b60008060009054906101000a900473ffffffffffffffffffffffffffffffffffffffff169050816000806101000a81548173ffffffffffffffffffffffffffffffffffffffff021916908373ffffffffffffffffffffffffffffffffffffffff1602179055508173ffffffffffffffffffffffffffffffffffffffff168173ffffffffffffffffffffffffffffffffffffffff167f8be0079c531659141344cd1fd0a4f28419497f9722a3daafe3b4186f6b6457e060405160405180910390a35050565b612255806200010e6000396000f3fe608060405234801561001057600080fd5b50600436106100ea5760003560e01c8063c7038a4e1161008c578063ee74c67811610066578063ee74c678146101ed578063f2fde38b146101f7578063f4ab9adf14610213578063f6c28b3b1461022f576100ea565b8063c7038a4e146101a9578063c88af42f146101b3578063d4f50f98146101bd576100ea565b8063a1edffa2116100c8578063a1edffa214610133578063a2788cce14610151578063a7bfab1614610181578063bdc014311461018b576100ea565b80632fdae3c5146100ef578063715018a61461010b5780638da5cb5b14610115575b600080fd5b61010960048036038101906101049190611499565b61024b565b005b6101136104d6565b005b61011d6104ea565b60405161012a9190611523565b60405180910390f35b61013b610513565b60405161014891906115b5565b60405180910390f35b61016b60048036038101906101669190611606565b610526565b6040516101789190611707565b60405180910390f35b61018961068d565b005b610193610773565b6040516101a09190611745565b60405180910390f35b6101b1610786565b005b6101bb61086c565b005b6101d760048036038101906101d2919061178c565b610952565b6040516101e49190611816565b60405180910390f35b6101f5610a7a565b005b610211600480360381019061020c919061178c565b610b60565b005b61022d6004803603810190610228919061178c565b610be3565b005b6102496004803603810190610244919061185d565b610d8c565b005b600260003373ffffffffffffffffffffffffffffffffffffffff1673ffffffffffffffffffffffffffffffffffffffff16815260200190815260200160002060000160009054906101000a900460ff166102da576040517f08c379a00000000000000000000000000000000000000000000000000000000081526004016102d1906118e7565b60405180910390fd5b600a6001805490501115610323576040517f08c379a000000000000000000000000000000000000000000000000000000000815260040161031a90611953565b60405180910390fd5b600160058111156103375761033661153e565b5b600060159054906101000a900460ff1660058111156103595761035861153e565b5b14610399576040517f08c379a0000000000000000000000000000000000000000000000000000000008152600401610390906119bf565b60405180910390fd5b6040516020016103a890611a05565b60405160208183030381529060405280519060200120816040516020016103cf9190611a5e565b6040516020818303038152906040528051906020012003610425576040517f08c379a000000000000000000000000000000000000000000000000000000000815260040161041c90611af2565b60405180910390fd5b61042d61125d565b8181600001819052506001819080600181540180825580915050600190039060005260206000209060020201600090919091909150600082015181600001908051906020019061047e929190611277565b506020820151816001015550507f92e393e9b54e2f801d3ea4beb0c5e71a21cc34a5d34b77d0fb8a3aa1650dc18f600180805490506104bd9190611b41565b6040516104ca9190611b84565b60405180910390a15050565b6104de611113565b6104e86000611191565b565b60008060009054906101000a900473ffffffffffffffffffffffffffffffffffffffff16905090565b600060159054906101000a900460ff1681565b61052e61125d565b600260003373ffffffffffffffffffffffffffffffffffffffff1673ffffffffffffffffffffffffffffffffffffffff16815260200190815260200160002060000160009054906101000a900460ff166105bd576040517f08c379a00000000000000000000000000000000000000000000000000000000081526004016105b4906118e7565b60405180910390fd5b600182815481106105d1576105d0611b9f565b5b90600052602060002090600202016040518060400160405290816000820180546105fa90611bfd565b80601f016020809104026020016040519081016040528092919081815260200182805461062690611bfd565b80156106735780601f1061064857610100808354040283529160200191610673565b820191906000526020600020905b81548152906001019060200180831161065657829003601f168201915b505050505081526020016001820154815250509050919050565b610695611113565b600360058111156106a9576106a861153e565b5b600060159054906101000a900460ff1660058111156106cb576106ca61153e565b5b1461070b576040517f08c379a000000000000000000000000000000000000000000000000000000000815260040161070290611ca0565b60405180910390fd5b6004600060156101000a81548160ff021916908360058111156107315761073061153e565b5b02179055507f0a97a4ee45751e2abf3e4fc8946939630b11b371ea8ae39ccdc3056e98f5cc3f60036004604051610769929190611cc0565b60405180910390a1565b600060149054906101000a900460ff1681565b61078e611113565b600060058111156107a2576107a161153e565b5b600060159054906101000a900460ff1660058111156107c4576107c361153e565b5b14610804576040517f08c379a00000000000000000000000000000000000000000000000000000000081526004016107fb90611d5b565b60405180910390fd5b6001600060156101000a81548160ff0219169083600581111561082a5761082961153e565b5b02179055507f0a97a4ee45751e2abf3e4fc8946939630b11b371ea8ae39ccdc3056e98f5cc3f60006001604051610862929190611cc0565b60405180910390a1565b610874611113565b600160058111156108885761088761153e565b5b600060159054906101000a900460ff1660058111156108aa576108a961153e565b5b146108ea576040517f08c379a00000000000000000000000000000000000000000000000000000000081526004016108e190611ded565b60405180910390fd5b6002600060156101000a81548160ff021916908360058111156109105761090f61153e565b5b02179055507f0a97a4ee45751e2abf3e4fc8946939630b11b371ea8ae39ccdc3056e98f5cc3f60016002604051610948929190611cc0565b60405180910390a1565b61095a6112fd565b600260003373ffffffffffffffffffffffffffffffffffffffff1673ffffffffffffffffffffffffffffffffffffffff16815260200190815260200160002060000160009054906101000a900460ff166109e9576040517f08c379a00000000000000000000000000000000000000000000000000000000081526004016109e0906118e7565b60405180910390fd5b600260008373ffffffffffffffffffffffffffffffffffffffff1673ffffffffffffffffffffffffffffffffffffffff1681526020019081526020016000206040518060600160405290816000820160009054906101000a900460ff161515151581526020016000820160019054906101000a900460ff161515151581526020016001820154815250509050919050565b610a82611113565b60026005811115610a9657610a9561153e565b5b600060159054906101000a900460ff166005811115610ab857610ab761153e565b5b14610af8576040517f08c379a0000000000000000000000000000000000000000000000000000000008152600401610aef90611e7f565b60405180910390fd5b6003600060156101000a81548160ff02191690836005811115610b1e57610b1d61153e565b5b02179055507f0a97a4ee45751e2abf3e4fc8946939630b11b371ea8ae39ccdc3056e98f5cc3f60026003604051610b56929190611cc0565b60405180910390a1565b610b68611113565b600073ffffffffffffffffffffffffffffffffffffffff168173ffffffffffffffffffffffffffffffffffffffff1603610bd7576040517f08c379a0000000000000000000000000000000000000000000000000000000008152600401610bce90611f11565b60405180910390fd5b610be081611191565b50565b610beb611113565b60006005811115610bff57610bfe61153e565b5b600060159054906101000a900460ff166005811115610c2157610c2061153e565b5b14610c61576040517f08c379a0000000000000000000000000000000000000000000000000000000008152600401610c5890611fa3565b60405180910390fd5b60011515600260008373ffffffffffffffffffffffffffffffffffffffff1673ffffffffffffffffffffffffffffffffffffffff16815260200190815260200160002060000160009054906101000a900460ff16151503610cf7576040517f08c379a0000000000000000000000000000000000000000000000000000000008152600401610cee9061200f565b60405180910390fd5b6001600260008373ffffffffffffffffffffffffffffffffffffffff1673ffffffffffffffffffffffffffffffffffffffff16815260200190815260200160002060000160006101000a81548160ff0219169083151502179055507fb6be2187d059cc2a55fe29e0e503b566e1e0f8c8780096e185429350acffd3dd81604051610d819190611523565b60405180910390a150565b600260003373ffffffffffffffffffffffffffffffffffffffff1673ffffffffffffffffffffffffffffffffffffffff16815260200190815260200160002060000160009054906101000a900460ff16610e1b576040517f08c379a0000000000000000000000000000000000000000000000000000000008152600401610e12906118e7565b60405180910390fd5b60036005811115610e2f57610e2e61153e565b5b600060159054906101000a900460ff166005811115610e5157610e5061153e565b5b14610e91576040517f08c379a0000000000000000000000000000000000000000000000000000000008152600401610e8890611ca0565b60405180910390fd5b60011515600260003373ffffffffffffffffffffffffffffffffffffffff1673ffffffffffffffffffffffffffffffffffffffff16815260200190815260200160002060000160019054906101000a900460ff16151503610f27576040517f08c379a0000000000000000000000000000000000000000000000000000000008152600401610f1e9061207b565b60405180910390fd5b6001805490508160ff1610610f71576040517f08c379a0000000000000000000000000000000000000000000000000000000008152600401610f68906120e7565b60405180910390fd5b8060ff16600260003373ffffffffffffffffffffffffffffffffffffffff1673ffffffffffffffffffffffffffffffffffffffff168152602001908152602001600020600101819055506001600260003373ffffffffffffffffffffffffffffffffffffffff1673ffffffffffffffffffffffffffffffffffffffff16815260200190815260200160002060000160016101000a81548160ff02191690831515021790555060018160ff168154811061102d5761102c611b9f565b5b9060005260206000209060020201600101600081548092919061104f90612107565b91905055506001600060149054906101000a900460ff1660ff168154811061107a57611079611b9f565b5b90600052602060002090600202016001015460018260ff16815481106110a3576110a2611b9f565b5b90600052602060002090600202016001015411156110d75780600060146101000a81548160ff021916908360ff1602179055505b7f4d99b957a2bc29a30ebd96a7be8e68fe50a3c701db28a91436490b7d53870ca4338260405161110892919061218a565b60405180910390a150565b61111b611255565b73ffffffffffffffffffffffffffffffffffffffff166111396104ea565b73ffffffffffffffffffffffffffffffffffffffff161461118f576040517f08c379a0000000000000000000000000000000000000000000000000000000008152600401611186906121ff565b60405180910390fd5b565b60008060009054906101000a900473ffffffffffffffffffffffffffffffffffffffff169050816000806101000a81548173ffffffffffffffffffffffffffffffffffffffff021916908373ffffffffffffffffffffffffffffffffffffffff1602179055508173ffffffffffffffffffffffffffffffffffffffff168173ffffffffffffffffffffffffffffffffffffffff167f8be0079c531659141344cd1fd0a4f28419497f9722a3daafe3b4186f6b6457e060405160405180910390a35050565b600033905090565b604051806040016040528060608152602001600081525090565b82805461128390611bfd565b90600052602060002090601f0160209004810192826112a557600085556112ec565b82601f106112be57805160ff19168380011785556112ec565b828001600101855582156112ec579182015b828111156112eb5782518255916020019190600101906112d0565b5b5090506112f99190611322565b5090565b6040518060600160405280600015158152602001600015158152602001600081525090565b5b8082111561133b576000816000905550600101611323565b5090565b6000604051905090565b600080fd5b600080fd5b600080fd5b600080fd5b6000601f19601f8301169050919050565b7f4e487b7100000000000000000000000000000000000000000000000000000000600052604160045260246000fd5b6113a68261135d565b810181811067ffffffffffffffff821117156113c5576113c461136e565b5b80604052505050565b60006113d861133f565b90506113e4828261139d565b919050565b600067ffffffffffffffff8211156114045761140361136e565b5b61140d8261135d565b9050602081019050919050565b82818337600083830152505050565b600061143c611437846113e9565b6113ce565b90508281526020810184848401111561145857611457611358565b5b61146384828561141a565b509392505050565b600082601f8301126114805761147f611353565b5b8135611490848260208601611429565b91505092915050565b6000602082840312156114af576114ae611349565b5b600082013567ffffffffffffffff8111156114cd576114cc61134e565b5b6114d98482850161146b565b91505092915050565b600073ffffffffffffffffffffffffffffffffffffffff82169050919050565b600061150d826114e2565b9050919050565b61151d81611502565b82525050565b60006020820190506115386000830184611514565b92915050565b7f4e487b7100000000000000000000000000000000000000000000000000000000600052602160045260246000fd5b6006811061157e5761157d61153e565b5b50565b600081905061158f8261156d565b919050565b600061159f82611581565b9050919050565b6115af81611594565b82525050565b60006020820190506115ca60008301846115a6565b92915050565b6000819050919050565b6115e3816115d0565b81146115ee57600080fd5b50565b600081359050611600816115da565b92915050565b60006020828403121561161c5761161b611349565b5b600061162a848285016115f1565b91505092915050565b600081519050919050565b600082825260208201905092915050565b60005b8381101561166d578082015181840152602081019050611652565b8381111561167c576000848401525b50505050565b600061168d82611633565b611697818561163e565b93506116a781856020860161164f565b6116b08161135d565b840191505092915050565b6116c4816115d0565b82525050565b600060408301600083015184820360008601526116e78282611682565b91505060208301516116fc60208601826116bb565b508091505092915050565b6000602082019050818103600083015261172181846116ca565b905092915050565b600060ff82169050919050565b61173f81611729565b82525050565b600060208201905061175a6000830184611736565b92915050565b61176981611502565b811461177457600080fd5b50565b60008135905061178681611760565b92915050565b6000602082840312156117a2576117a1611349565b5b60006117b084828501611777565b91505092915050565b60008115159050919050565b6117ce816117b9565b82525050565b6060820160008201516117ea60008501826117c5565b5060208201516117fd60208501826117c5565b50604082015161181060408501826116bb565b50505050565b600060608201905061182b60008301846117d4565b92915050565b61183a81611729565b811461184557600080fd5b50565b60008135905061185781611831565b92915050565b60006020828403121561187357611872611349565b5b600061188184828501611848565b91505092915050565b600082825260208201905092915050565b7f596f75277265206e6f74206120766f7465720000000000000000000000000000600082015250565b60006118d160128361188a565b91506118dc8261189b565b602082019050919050565b60006020820190508181036000830152611900816118c4565b9050919050565b7f50726f706f73616c73206c6973742069732066756c6c00000000000000000000600082015250565b600061193d60168361188a565b915061194882611907565b602082019050919050565b6000602082019050818103600083015261196c81611930565b9050919050565b7f50726f706f73616c7320617265206e6f7420616c6c6f77656420796574000000600082015250565b60006119a9601d8361188a565b91506119b482611973565b602082019050919050565b600060208201905081810360008301526119d88161199c565b9050919050565b50565b60006119ef60008361188a565b91506119fa826119df565b600082019050919050565b60006020820190508181036000830152611a1e816119e2565b9050919050565b6000611a3082611633565b611a3a818561188a565b9350611a4a81856020860161164f565b611a538161135d565b840191505092915050565b60006020820190508181036000830152611a788184611a25565b905092915050565b7f566f7573206e6520706f7576657a20706173206e65207269656e2070726f706f60008201527f7365720000000000000000000000000000000000000000000000000000000000602082015250565b6000611adc60238361188a565b9150611ae782611a80565b604082019050919050565b60006020820190508181036000830152611b0b81611acf565b9050919050565b7f4e487b7100000000000000000000000000000000000000000000000000000000600052601160045260246000fd5b6000611b4c826115d0565b9150611b57836115d0565b925082821015611b6a57611b69611b12565b5b828203905092915050565b611b7e816115d0565b82525050565b6000602082019050611b996000830184611b75565b92915050565b7f4e487b7100000000000000000000000000000000000000000000000000000000600052603260045260246000fd5b7f4e487b7100000000000000000000000000000000000000000000000000000000600052602260045260246000fd5b60006002820490506001821680611c1557607f821691505b602082108103611c2857611c27611bce565b5b50919050565b7f566f74696e672073657373696f6e20686176656e74207374617274656420796560008201527f7400000000000000000000000000000000000000000000000000000000000000602082015250565b6000611c8a60218361188a565b9150611c9582611c2e565b604082019050919050565b60006020820190508181036000830152611cb981611c7d565b9050919050565b6000604082019050611cd560008301856115a6565b611ce260208301846115a6565b9392505050565b7f5265676973746572696e672070726f706f73616c732063616e7420626520737460008201527f6172746564206e6f770000000000000000000000000000000000000000000000602082015250565b6000611d4560298361188a565b9150611d5082611ce9565b604082019050919050565b60006020820190508181036000830152611d7481611d38565b9050919050565b7f5265676973746572696e672070726f706f73616c7320686176656e742073746160008201527f7274656420796574000000000000000000000000000000000000000000000000602082015250565b6000611dd760288361188a565b9150611de282611d7b565b604082019050919050565b60006020820190508181036000830152611e0681611dca565b9050919050565b7f5265676973746572696e672070726f706f73616c73207068617365206973206e60008201527f6f742066696e6973686564000000000000000000000000000000000000000000602082015250565b6000611e69602b8361188a565b9150611e7482611e0d565b604082019050919050565b60006020820190508181036000830152611e9881611e5c565b9050919050565b7f4f776e61626c653a206e6577206f776e657220697320746865207a65726f206160008201527f6464726573730000000000000000000000000000000000000000000000000000602082015250565b6000611efb60268361188a565b9150611f0682611e9f565b604082019050919050565b60006020820190508181036000830152611f2a81611eee565b9050919050565b7f566f7465727320726567697374726174696f6e206973206e6f74206f70656e2060008201527f7965740000000000000000000000000000000000000000000000000000000000602082015250565b6000611f8d60238361188a565b9150611f9882611f31565b604082019050919050565b60006020820190508181036000830152611fbc81611f80565b9050919050565b7f416c726561647920726567697374657265640000000000000000000000000000600082015250565b6000611ff960128361188a565b915061200482611fc3565b602082019050919050565b6000602082019050818103600083015261202881611fec565b9050919050565b7f596f75206861766520616c726561647920766f74656400000000000000000000600082015250565b600061206560168361188a565b91506120708261202f565b602082019050919050565b6000602082019050818103600083015261209481612058565b9050919050565b7f50726f706f73616c206e6f7420666f756e640000000000000000000000000000600082015250565b60006120d160128361188a565b91506120dc8261209b565b602082019050919050565b60006020820190508181036000830152612100816120c4565b9050919050565b6000612112826115d0565b91507fffffffffffffffffffffffffffffffffffffffffffffffffffffffffffffffff820361214457612143611b12565b5b600182019050919050565b6000819050919050565b600061217461216f61216a84611729565b61214f565b6115d0565b9050919050565b61218481612159565b82525050565b600060408201905061219f6000830185611514565b6121ac602083018461217b565b9392505050565b7f4f776e61626c653a2063616c6c6572206973206e6f7420746865206f776e6572600082015250565b60006121e960208361188a565b91506121f4826121b3565b602082019050919050565b60006020820190508181036000830152612218816121dc565b905091905056fea26469706673582212205a9596e9ee227fb7ae605ffce08a425cba2e44b3b2e3466aef2dcaa9c84f372864736f6c634300080e0033",
  "immutableReferences": {},
  "source": "// SPDX-License-Identifier: MIT\n\npragma solidity 0.8.14;\nimport \"../node_modules/@openzeppelin/contracts/access/Ownable.sol\";\n\n\ncontract Voting is Ownable {\n\n    uint8 public winningProposalID;\n    \n    struct Voter {\n        bool isRegistered;\n        bool hasVoted;\n        uint votedProposalId;\n    }\n\n    struct Proposal {\n        string description;\n        uint voteCount;\n    }\n\n    enum  WorkflowStatus {\n        RegisteringVoters,\n        ProposalsRegistrationStarted,\n        ProposalsRegistrationEnded,\n        VotingSessionStarted,\n        VotingSessionEnded,\n        VotesTallied\n    }\n\n    WorkflowStatus public workflowStatus;\n    Proposal[] proposalsArray;\n    mapping (address => Voter) voters;\n\n\n    event VoterRegistered(address _voterAddress); \n    event WorkflowStatusChange(WorkflowStatus _previousStatus, WorkflowStatus _newStatus);\n    event ProposalRegistered(uint _proposalId);\n    event Voted (address _voter, uint _proposalId);\n\n    modifier onlyVoters() {\n        require(voters[msg.sender].isRegistered, \"You're not a voter\");\n        _;\n    }\n    \n\n    // ::::::::::::: GETTERS ::::::::::::: //\n\n    function getVoter(address _addr) external onlyVoters view returns (Voter memory) {\n        return voters[_addr];\n    }\n    \n    function getOneProposal(uint _id) external onlyVoters view returns (Proposal memory) {\n        return proposalsArray[_id];\n    }\n\n \n    // ::::::::::::: REGISTRATION ::::::::::::: // \n\n    function addVoter(address _addr) external onlyOwner {\n        require(workflowStatus == WorkflowStatus.RegisteringVoters, 'Voters registration is not open yet');\n        require(voters[_addr].isRegistered != true, 'Already registered');\n    \n        voters[_addr].isRegistered = true;\n        emit VoterRegistered(_addr);\n    }\n \n\n    // ::::::::::::: PROPOSAL ::::::::::::: // \n\n    function addProposal(string memory _desc) external onlyVoters {\n        // \n        require(proposalsArray.length <= 10, \"Proposals list is full\");\n        require(workflowStatus == WorkflowStatus.ProposalsRegistrationStarted, 'Proposals are not allowed yet');\n        require(keccak256(abi.encode(_desc)) != keccak256(abi.encode(\"\")), 'Vous ne pouvez pas ne rien proposer'); // facultatif\n        // voir que desc est different des autres\n\n        Proposal memory proposal;\n        proposal.description = _desc;\n        proposalsArray.push(proposal);\n        emit ProposalRegistered(proposalsArray.length-1);\n    }\n\n    // ::::::::::::: VOTE ::::::::::::: //\n\n    function setVote(uint8 _id) external onlyVoters {\n        require(workflowStatus == WorkflowStatus.VotingSessionStarted, 'Voting session havent started yet');\n        require(voters[msg.sender].hasVoted != true, 'You have already voted');\n        require(_id < proposalsArray.length, 'Proposal not found'); // pas oblig, et pas besoin du >0 car uint\n\n        voters[msg.sender].votedProposalId = _id;\n        voters[msg.sender].hasVoted = true;\n        proposalsArray[_id].voteCount++;\n\n        if (proposalsArray[_id].voteCount > proposalsArray[winningProposalID].voteCount) {\n            winningProposalID = _id;\n        }\n\n        emit Voted(msg.sender, _id);\n    }\n\n    // ::::::::::::: STATE ::::::::::::: //\n\n    function startProposalsRegistering() external onlyOwner {\n        require(workflowStatus == WorkflowStatus.RegisteringVoters, 'Registering proposals cant be started now');\n        workflowStatus = WorkflowStatus.ProposalsRegistrationStarted;\n        emit WorkflowStatusChange(WorkflowStatus.RegisteringVoters, WorkflowStatus.ProposalsRegistrationStarted);\n    }\n\n    function endProposalsRegistering() external onlyOwner {\n        require(workflowStatus == WorkflowStatus.ProposalsRegistrationStarted, 'Registering proposals havent started yet');\n        workflowStatus = WorkflowStatus.ProposalsRegistrationEnded;\n        emit WorkflowStatusChange(WorkflowStatus.ProposalsRegistrationStarted, WorkflowStatus.ProposalsRegistrationEnded);\n    }\n\n    function startVotingSession() external onlyOwner {\n        require(workflowStatus == WorkflowStatus.ProposalsRegistrationEnded, 'Registering proposals phase is not finished');\n        workflowStatus = WorkflowStatus.VotingSessionStarted;\n        emit WorkflowStatusChange(WorkflowStatus.ProposalsRegistrationEnded, WorkflowStatus.VotingSessionStarted);\n    }\n\n    function endVotingSession() external onlyOwner {\n        require(workflowStatus == WorkflowStatus.VotingSessionStarted, 'Voting session havent started yet');\n        workflowStatus = WorkflowStatus.VotingSessionEnded;\n        emit WorkflowStatusChange(WorkflowStatus.VotingSessionStarted, WorkflowStatus.VotingSessionEnded);\n    }\n\n    // ===== SECURITE =====\n    // La fonction n'est plus a utiliser. On a dplacer le calcul du gagnant dans la fonction de vote\n    // Plus de souci de boucle for et de potentiel DoS Gas Limit\n    // Pour recup l'id du gagnant on utilise le getter winningProposalID\n    // ====================\n//    function tallyVotes() external onlyOwner {\n//        require(workflowStatus == WorkflowStatus.VotingSessionEnded, \"Current status is not voting session ended\");\n//        uint8 _winningProposalId;\n//       for (uint8 p = 0; p < proposalsArray.length; p++) {\n//            if (proposalsArray[p].voteCount > proposalsArray[_winningProposalId].voteCount) {\n//                _winningProposalId = p;\n//           }\n//        }\n//        winningProposalID = _winningProposalId;\n       \n//        workflowStatus = WorkflowStatus.VotesTallied;\n//        emit WorkflowStatusChange(WorkflowStatus.VotingSessionEnded, WorkflowStatus.VotesTallied);\n//     }\n}",
  "sourcePath": "/var/www/html/alyra/Developpeur-Ethereum-Template/6_Dapp/VotingSystem/truffle/contracts/Voting.sol",
  "compiler": {
    "name": "solc",
    "version": "0.8.14+commit.80d49f37.Emscripten.clang"
  },
  "schemaVersion": "3.4.8",
  "updatedAt": "2022-07-14T21:55:02.171Z",
  "networkType": "ethereum",
  "devdoc": {
    "kind": "dev",
    "methods": {
      "owner()": {
        "details": "Returns the address of the current owner."
      },
      "renounceOwnership()": {
        "details": "Leaves the contract without owner. It will not be possible to call `onlyOwner` functions anymore. Can only be called by the current owner. NOTE: Renouncing ownership will leave the contract without an owner, thereby removing any functionality that is only available to the owner."
      },
      "transferOwnership(address)": {
        "details": "Transfers ownership of the contract to a new account (`newOwner`). Can only be called by the current owner."
      }
    },
    "version": 1
  },
  "userdoc": {
    "kind": "user",
    "methods": {},
    "version": 1
  }
}